{
  "contractName": "TestContractOne",
  "abi": [
    {
      "constant": true,
      "inputs": [
        {
          "name": "_a",
          "type": "address"
        }
      ],
      "name": "counterFor",
      "outputs": [
        {
          "name": "",
          "type": "uint256"
        }
      ],
      "payable": false,
      "stateMutability": "view",
      "type": "function"
    },
    {
      "constant": false,
      "inputs": [
        {
          "name": "_from",
          "type": "address"
        },
        {
          "name": "_counter",
          "type": "uint32"
        }
      ],
      "name": "removeCounter",
      "outputs": [],
      "payable": false,
      "stateMutability": "nonpayable",
      "type": "function"
    },
    {
      "constant": false,
      "inputs": [
        {
          "name": "_to",
          "type": "address"
        },
        {
          "name": "_counter",
          "type": "uint32"
        }
      ],
      "name": "addCounter",
      "outputs": [],
      "payable": false,
      "stateMutability": "nonpayable",
      "type": "function"
    },
    {
      "inputs": [],
      "payable": false,
      "stateMutability": "nonpayable",
      "type": "constructor"
    }
  ],
  "bytecode": "0x6060604052341561000f57600080fd5b61036a8061001e6000396000f300606060405260043610610057576000357c0100000000000000000000000000000000000000000000000000000000900463ffffffff1680635d0b67741461005c57806363a8b945146100a9578063780c4a73146100f1575b600080fd5b341561006757600080fd5b610093600480803573ffffffffffffffffffffffffffffffffffffffff16906020019091905050610139565b6040518082815260200191505060405180910390f35b34156100b457600080fd5b6100ef600480803573ffffffffffffffffffffffffffffffffffffffff1690602001909190803563ffffffff16906020019091905050610181565b005b34156100fc57600080fd5b610137600480803573ffffffffffffffffffffffffffffffffffffffff1690602001909190803563ffffffff16906020019091905050610240565b005b60008060008373ffffffffffffffffffffffffffffffffffffffff1673ffffffffffffffffffffffffffffffffffffffff168152602001908152602001600020549050919050565b60648163ffffffff161115151561019757600080fd5b8063ffffffff166000808473ffffffffffffffffffffffffffffffffffffffff1673ffffffffffffffffffffffffffffffffffffffff16815260200190815260200160002054101515156101ea57600080fd5b8063ffffffff166000808473ffffffffffffffffffffffffffffffffffffffff1673ffffffffffffffffffffffffffffffffffffffff168152602001908152602001600020600082825403925050819055505050565b60648163ffffffff161115151561025657600080fd5b6000808373ffffffffffffffffffffffffffffffffffffffff1673ffffffffffffffffffffffffffffffffffffffff168152602001908152602001600020548163ffffffff166000808573ffffffffffffffffffffffffffffffffffffffff1673ffffffffffffffffffffffffffffffffffffffff16815260200190815260200160002054011115156102e857600080fd5b8063ffffffff166000808473ffffffffffffffffffffffffffffffffffffffff1673ffffffffffffffffffffffffffffffffffffffff1681526020019081526020016000206000828254019250508190555050505600a165627a7a72305820c2b25c7c8ce72700347d6035c4a8aa50834bbfd8f66dccd473fbf3d38cbd2d350029",
  "source": "pragma solidity ^0.4.17;\n\ncontract TestContractOne {\n    mapping(address => uint256) internal counters;\n\n    function TestContractOne() public {\n    }\n\n    function counterFor(address _a) public view returns (uint256) {\n        return counters[_a];\n    }\n    \n    function addCounter(address _to, uint32 _counter) public {\n        require(_counter <= 100);\n        require((counters[_to] + _counter) > counters[_to]);\n        counters[_to] += _counter;\n    }\n\n    function removeCounter(address _from, uint32 _counter) public {\n        require(_counter <= 100);\n        require(counters[_from] >= _counter);\n        counters[_from] -= _counter;\n    }\n}\n\n",
  "sourcePath": "/Users/escoffon/eth/ruby/ethereum.rb/spec/truffle/contracts/TestContractOne.sol",
  "compiler": {
    "name": "solc",
    "version": "0.4.18+commit.9cf6e910.Emscripten.clang"
  },
  "schemaVersion": "1.0.1",
  "updatedAt": "2017-11-03T03:10:36.482Z"
}